{
  "_format": "hh-sol-artifact-1",
  "contractName": "Campaign",
  "sourceName": "contracts/Campaign.sol",
  "abi": [
    {
      "inputs": [
        {
          "internalType": "uint256",
          "name": "minimum",
          "type": "uint256"
        },
        {
          "internalType": "address",
          "name": "creator",
          "type": "address"
        }
      ],
      "stateMutability": "nonpayable",
      "type": "constructor"
    },
    {
      "anonymous": false,
      "inputs": [
        {
          "indexed": false,
          "internalType": "uint256",
          "name": "index",
          "type": "uint256"
        },
        {
          "indexed": false,
          "internalType": "address",
          "name": "contributor",
          "type": "address"
        }
      ],
      "name": "AprroveRequest",
      "type": "event"
    },
    {
      "anonymous": false,
      "inputs": [
        {
          "indexed": false,
          "internalType": "address",
          "name": "from",
          "type": "address"
        },
        {
          "indexed": false,
          "internalType": "uint256",
          "name": "amount",
          "type": "uint256"
        }
      ],
      "name": "Contribute",
      "type": "event"
    },
    {
      "anonymous": false,
      "inputs": [
        {
          "indexed": false,
          "internalType": "uint256",
          "name": "index",
          "type": "uint256"
        },
        {
          "indexed": false,
          "internalType": "address",
          "name": "to",
          "type": "address"
        },
        {
          "indexed": false,
          "internalType": "uint256",
          "name": "amount",
          "type": "uint256"
        },
        {
          "indexed": false,
          "internalType": "string",
          "name": "des",
          "type": "string"
        }
      ],
      "name": "CreateRequest",
      "type": "event"
    },
    {
      "anonymous": false,
      "inputs": [
        {
          "indexed": false,
          "internalType": "uint256",
          "name": "index",
          "type": "uint256"
        },
        {
          "indexed": false,
          "internalType": "address",
          "name": "to",
          "type": "address"
        },
        {
          "indexed": false,
          "internalType": "uint256",
          "name": "amount",
          "type": "uint256"
        }
      ],
      "name": "ExecuteRequest",
      "type": "event"
    },
    {
      "inputs": [
        {
          "internalType": "uint256",
          "name": "_requestIndex",
          "type": "uint256"
        }
      ],
      "name": "approveRequest",
      "outputs": [],
      "stateMutability": "nonpayable",
      "type": "function"
    },
    {
      "inputs": [
        {
          "internalType": "uint256",
          "name": "",
          "type": "uint256"
        },
        {
          "internalType": "address",
          "name": "",
          "type": "address"
        }
      ],
      "name": "approved",
      "outputs": [
        {
          "internalType": "bool",
          "name": "",
          "type": "bool"
        }
      ],
      "stateMutability": "view",
      "type": "function"
    },
    {
      "inputs": [],
      "name": "contribute",
      "outputs": [],
      "stateMutability": "payable",
      "type": "function"
    },
    {
      "inputs": [
        {
          "internalType": "address",
          "name": "",
          "type": "address"
        }
      ],
      "name": "contributors",
      "outputs": [
        {
          "internalType": "bool",
          "name": "",
          "type": "bool"
        }
      ],
      "stateMutability": "view",
      "type": "function"
    },
    {
      "inputs": [
        {
          "internalType": "string",
          "name": "_description",
          "type": "string"
        },
        {
          "internalType": "uint256",
          "name": "_value",
          "type": "uint256"
        },
        {
          "internalType": "address",
          "name": "_recipient",
          "type": "address"
        }
      ],
      "name": "createRequest",
      "outputs": [],
      "stateMutability": "nonpayable",
      "type": "function"
    },
    {
      "inputs": [
        {
          "internalType": "uint256",
          "name": "_requestIndex",
          "type": "uint256"
        }
      ],
      "name": "excuteRequest",
      "outputs": [],
      "stateMutability": "nonpayable",
      "type": "function"
    },
    {
      "inputs": [
        {
          "internalType": "uint256",
          "name": "_requestIndex",
          "type": "uint256"
        }
      ],
      "name": "getRequest",
      "outputs": [
        {
          "components": [
            {
              "internalType": "string",
              "name": "description",
              "type": "string"
            },
            {
              "internalType": "uint256",
              "name": "value",
              "type": "uint256"
            },
            {
              "internalType": "address",
              "name": "recipient",
              "type": "address"
            },
            {
              "internalType": "bool",
              "name": "completed",
              "type": "bool"
            },
            {
              "internalType": "uint256",
              "name": "approvalCount",
              "type": "uint256"
            }
          ],
          "internalType": "struct Campaign.Request",
          "name": "",
          "type": "tuple"
        }
      ],
      "stateMutability": "view",
      "type": "function"
    },
    {
      "inputs": [],
      "name": "getRequestArray",
      "outputs": [
        {
          "components": [
            {
              "internalType": "string",
              "name": "description",
              "type": "string"
            },
            {
              "internalType": "uint256",
              "name": "value",
              "type": "uint256"
            },
            {
              "internalType": "address",
              "name": "recipient",
              "type": "address"
            },
            {
              "internalType": "bool",
              "name": "completed",
              "type": "bool"
            },
            {
              "internalType": "uint256",
              "name": "approvalCount",
              "type": "uint256"
            }
          ],
          "internalType": "struct Campaign.Request[]",
          "name": "",
          "type": "tuple[]"
        }
      ],
      "stateMutability": "view",
      "type": "function"
    },
    {
      "inputs": [],
      "name": "getTotalContribution",
      "outputs": [
        {
          "internalType": "uint256",
          "name": "",
          "type": "uint256"
        }
      ],
      "stateMutability": "view",
      "type": "function"
    },
    {
      "inputs": [],
      "name": "manager",
      "outputs": [
        {
          "internalType": "address",
          "name": "",
          "type": "address"
        }
      ],
      "stateMutability": "view",
      "type": "function"
    },
    {
      "inputs": [],
      "name": "minimumContribution",
      "outputs": [
        {
          "internalType": "uint256",
          "name": "",
          "type": "uint256"
        }
      ],
      "stateMutability": "view",
      "type": "function"
    },
    {
      "inputs": [],
      "name": "numOfContributors",
      "outputs": [
        {
          "internalType": "uint256",
          "name": "",
          "type": "uint256"
        }
      ],
      "stateMutability": "view",
      "type": "function"
    },
    {
      "inputs": [
        {
          "internalType": "uint256",
          "name": "",
          "type": "uint256"
        }
      ],
      "name": "requests",
      "outputs": [
        {
          "internalType": "string",
          "name": "description",
          "type": "string"
        },
        {
          "internalType": "uint256",
          "name": "value",
          "type": "uint256"
        },
        {
          "internalType": "address",
          "name": "recipient",
          "type": "address"
        },
        {
          "internalType": "bool",
          "name": "completed",
          "type": "bool"
        },
        {
          "internalType": "uint256",
          "name": "approvalCount",
          "type": "uint256"
        }
      ],
      "stateMutability": "view",
      "type": "function"
    },
    {
      "inputs": [
        {
          "internalType": "uint256",
          "name": "_requestIndex",
          "type": "uint256"
        }
      ],
      "name": "undoAprroval",
      "outputs": [],
      "stateMutability": "nonpayable",
      "type": "function"
    }
  ],
  "bytecode": "0x60806040523480156200001157600080fd5b50604051620025e3380380620025e38339818101604052810190620000379190620000b5565b80600360006101000a81548173ffffffffffffffffffffffffffffffffffffffff021916908373ffffffffffffffffffffffffffffffffffffffff16021790555081600481905550505062000168565b600081519050620000988162000134565b92915050565b600081519050620000af816200014e565b92915050565b60008060408385031215620000c957600080fd5b6000620000d9858286016200009e565b9250506020620000ec8582860162000087565b9150509250929050565b600062000103826200010a565b9050919050565b600073ffffffffffffffffffffffffffffffffffffffff82169050919050565b6000819050919050565b6200013f81620000f6565b81146200014b57600080fd5b50565b62000159816200012a565b81146200016557600080fd5b50565b61246b80620001786000396000f3fe6080604052600436106100dd5760003560e01c80638253951a1161007f578063c58343ef11610059578063c58343ef146102c4578063d7bb99ba14610301578063d7d1bbdb1461030b578063de3c8a5314610334576100dd565b80638253951a146102335780638a9cfd5514610270578063937e09b114610299576100dd565b8063318d7e83116100bb578063318d7e83146101755780633e577c5c1461019e578063481c6a75146101c757806381d12c58146101f2576100dd565b806308caa910146100e25780631e206f151461010d5780631f6d494214610138575b600080fd5b3480156100ee57600080fd5b506100f761035f565b6040516101049190611cfb565b60405180910390f35b34801561011957600080fd5b50610122610368565b60405161012f9190611cfb565b60405180910390f35b34801561014457600080fd5b5061015f600480360381019061015a919061166d565b61036e565b60405161016c9190611b44565b60405180910390f35b34801561018157600080fd5b5061019c600480360381019061019791906116fd565b61038e565b005b3480156101aa57600080fd5b506101c560048036038101906101c091906116fd565b6105d4565b005b3480156101d357600080fd5b506101dc610b2f565b6040516101e99190611ade565b60405180910390f35b3480156101fe57600080fd5b50610219600480360381019061021491906116fd565b610b55565b60405161022a959493929190611b5f565b60405180910390f35b34801561023f57600080fd5b5061025a60048036038101906102559190611726565b610c50565b6040516102679190611b44565b60405180910390f35b34801561027c57600080fd5b5061029760048036038101906102929190611696565b610c7f565b005b3480156102a557600080fd5b506102ae610e77565b6040516102bb9190611cfb565b60405180910390f35b3480156102d057600080fd5b506102eb60048036038101906102e691906116fd565b610e7d565b6040516102f89190611cd9565b60405180910390f35b610309610ff6565b005b34801561031757600080fd5b50610332600480360381019061032d91906116fd565b6110fd565b005b34801561034057600080fd5b5061034961137b565b6040516103569190611b22565b60405180910390f35b60008054905090565b60065481565b60056020528060005260406000206000915054906101000a900460ff1681565b600560003373ffffffffffffffffffffffffffffffffffffffff1673ffffffffffffffffffffffffffffffffffffffff16815260200190815260200160002060009054906101000a900460ff1661041a576040517f08c379a000000000000000000000000000000000000000000000000000000000815260040161041190611bb9565b60405180910390fd5b806002805490508110610462576040517f08c379a000000000000000000000000000000000000000000000000000000000815260040161045990611c39565b60405180910390fd5b600115156001600084815260200190815260200160002060003373ffffffffffffffffffffffffffffffffffffffff1673ffffffffffffffffffffffffffffffffffffffff16815260200190815260200160002060009054906101000a900460ff16151514610506576040517f08c379a00000000000000000000000000000000000000000000000000000000081526004016104fd90611cb9565b60405180910390fd5b60028281548110610540577f4e487b7100000000000000000000000000000000000000000000000000000000600052603260045260246000fd5b9060005260206000209060040201600301600081548092919061056290611fc3565b919050555060006001600084815260200190815260200160002060003373ffffffffffffffffffffffffffffffffffffffff1673ffffffffffffffffffffffffffffffffffffffff16815260200190815260200160002060006101000a81548160ff0219169083151502179055505050565b600360009054906101000a900473ffffffffffffffffffffffffffffffffffffffff1673ffffffffffffffffffffffffffffffffffffffff163373ffffffffffffffffffffffffffffffffffffffff1614610664576040517f08c379a000000000000000000000000000000000000000000000000000000000815260040161065b90611bf9565b60405180910390fd5b8060028054905081106106ac576040517f08c379a00000000000000000000000000000000000000000000000000000000081526004016106a390611c39565b60405180910390fd5b600282815481106106e6577f4e487b7100000000000000000000000000000000000000000000000000000000600052603260045260246000fd5b906000526020600020906004020160010154600054101561073c576040517f08c379a000000000000000000000000000000000000000000000000000000000815260040161073390611c99565b60405180910390fd5b600260065461074b9190611ed4565b60028381548110610785577f4e487b7100000000000000000000000000000000000000000000000000000000600052603260045260246000fd5b906000526020600020906004020160030154116107d7576040517f08c379a00000000000000000000000000000000000000000000000000000000081526004016107ce90611c59565b60405180910390fd5b6000151560028381548110610815577f4e487b7100000000000000000000000000000000000000000000000000000000600052603260045260246000fd5b906000526020600020906004020160020160149054906101000a900460ff16151514610876576040517f08c379a000000000000000000000000000000000000000000000000000000000815260040161086d90611c19565b60405180910390fd5b600282815481106108b0577f4e487b7100000000000000000000000000000000000000000000000000000000600052603260045260246000fd5b9060005260206000209060040201600101546000808282546108d29190611f05565b92505081905550600160028381548110610915577f4e487b7100000000000000000000000000000000000000000000000000000000600052603260045260246000fd5b906000526020600020906004020160020160146101000a81548160ff02191690831515021790555060028281548110610977577f4e487b7100000000000000000000000000000000000000000000000000000000600052603260045260246000fd5b906000526020600020906004020160020160009054906101000a900473ffffffffffffffffffffffffffffffffffffffff1673ffffffffffffffffffffffffffffffffffffffff166108fc600284815481106109fc577f4e487b7100000000000000000000000000000000000000000000000000000000600052603260045260246000fd5b9060005260206000209060040201600101549081150290604051600060405180830381858888f19350505050158015610a39573d6000803e3d6000fd5b507f55d47b3ef994e6498ee206748741ea9f316c915fecd2f02ba467e113f64ab7ee8260028481548110610a96577f4e487b7100000000000000000000000000000000000000000000000000000000600052603260045260246000fd5b906000526020600020906004020160020160009054906101000a900473ffffffffffffffffffffffffffffffffffffffff1660028581548110610b02577f4e487b7100000000000000000000000000000000000000000000000000000000600052603260045260246000fd5b906000526020600020906004020160010154604051610b2393929190611d3f565b60405180910390a15050565b600360009054906101000a900473ffffffffffffffffffffffffffffffffffffffff1681565b60028181548110610b6557600080fd5b9060005260206000209060040201600091509050806000018054610b8890611fed565b80601f0160208091040260200160405190810160405280929190818152602001828054610bb490611fed565b8015610c015780601f10610bd657610100808354040283529160200191610c01565b820191906000526020600020905b815481529060010190602001808311610be457829003601f168201915b5050505050908060010154908060020160009054906101000a900473ffffffffffffffffffffffffffffffffffffffff16908060020160149054906101000a900460ff16908060030154905085565b60016020528160005260406000206020528060005260406000206000915091509054906101000a900460ff1681565b600360009054906101000a900473ffffffffffffffffffffffffffffffffffffffff1673ffffffffffffffffffffffffffffffffffffffff163373ffffffffffffffffffffffffffffffffffffffff1614610d0f576040517f08c379a0000000000000000000000000000000000000000000000000000000008152600401610d0690611bf9565b60405180910390fd5b60006040518060a001604052808581526020018481526020018373ffffffffffffffffffffffffffffffffffffffff1681526020016000151581526020016000815250905060028190806001815401808255809150506001900390600052602060002090600402016000909190919091506000820151816000019080519060200190610d9c9291906114f1565b506020820151816001015560408201518160020160006101000a81548173ffffffffffffffffffffffffffffffffffffffff021916908373ffffffffffffffffffffffffffffffffffffffff16021790555060608201518160020160146101000a81548160ff02191690831515021790555060808201518160030155505060076000815480929190610e2d90612050565b91905055507f2881729c6daf742cff60615fda3a7c9c2920fc6be1205ad167a57c8e960ab36c600754838587604051610e699493929190611d76565b60405180910390a150505050565b60045481565b610e85611577565b60028281548110610ebf577f4e487b7100000000000000000000000000000000000000000000000000000000600052603260045260246000fd5b90600052602060002090600402016040518060a0016040529081600082018054610ee890611fed565b80601f0160208091040260200160405190810160405280929190818152602001828054610f1490611fed565b8015610f615780601f10610f3657610100808354040283529160200191610f61565b820191906000526020600020905b815481529060010190602001808311610f4457829003601f168201915b50505050508152602001600182015481526020016002820160009054906101000a900473ffffffffffffffffffffffffffffffffffffffff1673ffffffffffffffffffffffffffffffffffffffff1673ffffffffffffffffffffffffffffffffffffffff1681526020016002820160149054906101000a900460ff161515151581526020016003820154815250509050919050565b600454341161103a576040517f08c379a000000000000000000000000000000000000000000000000000000000815260040161103190611c79565b60405180910390fd5b6001600560003373ffffffffffffffffffffffffffffffffffffffff1673ffffffffffffffffffffffffffffffffffffffff16815260200190815260200160002060006101000a81548160ff021916908315150217905550600660008154809291906110a590612050565b9190505550346000808282546110bb9190611e7e565b925050819055507f906faaf913a60f38b5e8f2d6f5b163239bac2d994fa1a5d21751a51587a9405733346040516110f3929190611af9565b60405180910390a1565b600560003373ffffffffffffffffffffffffffffffffffffffff1673ffffffffffffffffffffffffffffffffffffffff16815260200190815260200160002060009054906101000a900460ff16611189576040517f08c379a000000000000000000000000000000000000000000000000000000000815260040161118090611bb9565b60405180910390fd5b8060028054905081106111d1576040517f08c379a00000000000000000000000000000000000000000000000000000000081526004016111c890611c39565b60405180910390fd5b600015156001600084815260200190815260200160002060003373ffffffffffffffffffffffffffffffffffffffff1673ffffffffffffffffffffffffffffffffffffffff16815260200190815260200160002060009054906101000a900460ff16151514611275576040517f08c379a000000000000000000000000000000000000000000000000000000000815260040161126c90611bd9565b60405180910390fd5b600282815481106112af577f4e487b7100000000000000000000000000000000000000000000000000000000600052603260045260246000fd5b906000526020600020906004020160030160008154809291906112d190612050565b9190505550600180600084815260200190815260200160002060003373ffffffffffffffffffffffffffffffffffffffff1673ffffffffffffffffffffffffffffffffffffffff16815260200190815260200160002060006101000a81548160ff0219169083151502179055507f8de140a91f2592e5e30af6bd0a535c994cf7028512a55220fba2f039b9a53704823360405161136f929190611d16565b60405180910390a15050565b60606002805480602002602001604051908101604052809291908181526020016000905b828210156114e857838290600052602060002090600402016040518060a00160405290816000820180546113d290611fed565b80601f01602080910402602001604051908101604052809291908181526020018280546113fe90611fed565b801561144b5780601f106114205761010080835404028352916020019161144b565b820191906000526020600020905b81548152906001019060200180831161142e57829003601f168201915b50505050508152602001600182015481526020016002820160009054906101000a900473ffffffffffffffffffffffffffffffffffffffff1673ffffffffffffffffffffffffffffffffffffffff1673ffffffffffffffffffffffffffffffffffffffff1681526020016002820160149054906101000a900460ff161515151581526020016003820154815250508152602001906001019061139f565b50505050905090565b8280546114fd90611fed565b90600052602060002090601f01602090048101928261151f5760008555611566565b82601f1061153857805160ff1916838001178555611566565b82800160010185558215611566579182015b8281111561156557825182559160200191906001019061154a565b5b50905061157391906115be565b5090565b6040518060a001604052806060815260200160008152602001600073ffffffffffffffffffffffffffffffffffffffff168152602001600015158152602001600081525090565b5b808211156115d75760008160009055506001016115bf565b5090565b60006115ee6115e984611de7565b611dc2565b90508281526020810184848401111561160657600080fd5b611611848285611f81565b509392505050565b60008135905061162881612407565b92915050565b600082601f83011261163f57600080fd5b813561164f8482602086016115db565b91505092915050565b6000813590506116678161241e565b92915050565b60006020828403121561167f57600080fd5b600061168d84828501611619565b91505092915050565b6000806000606084860312156116ab57600080fd5b600084013567ffffffffffffffff8111156116c557600080fd5b6116d18682870161162e565b93505060206116e286828701611658565b92505060406116f386828701611619565b9150509250925092565b60006020828403121561170f57600080fd5b600061171d84828501611658565b91505092915050565b6000806040838503121561173957600080fd5b600061174785828601611658565b925050602061175885828601611619565b9150509250929050565b600061176e83836119d4565b905092915050565b61177f81611f39565b82525050565b61178e81611f39565b82525050565b600061179f82611e28565b6117a98185611e4b565b9350836020820285016117bb85611e18565b8060005b858110156117f757848403895281516117d88582611762565b94506117e383611e3e565b925060208a019950506001810190506117bf565b50829750879550505050505092915050565b61181281611f4b565b82525050565b61182181611f4b565b82525050565b600061183282611e33565b61183c8185611e5c565b935061184c818560208601611f90565b61185581612155565b840191505092915050565b600061186b82611e33565b6118758185611e6d565b9350611885818560208601611f90565b61188e81612155565b840191505092915050565b60006118a6602583611e6d565b91506118b182612166565b604082019050919050565b60006118c9602a83611e6d565b91506118d4826121b5565b604082019050919050565b60006118ec602183611e6d565b91506118f782612204565b604082019050919050565b600061190f602683611e6d565b915061191a82612253565b604082019050919050565b6000611932602183611e6d565b915061193d826122a2565b604082019050919050565b6000611955601e83611e6d565b9150611960826122f1565b602082019050919050565b6000611978602a83611e6d565b91506119838261231a565b604082019050919050565b600061199b602283611e6d565b91506119a682612369565b604082019050919050565b60006119be602b83611e6d565b91506119c9826123b8565b604082019050919050565b600060a08301600083015184820360008601526119f18282611827565b9150506020830151611a066020860182611ac0565b506040830151611a196040860182611776565b506060830151611a2c6060860182611809565b506080830151611a3f6080860182611ac0565b508091505092915050565b600060a0830160008301518482036000860152611a678282611827565b9150506020830151611a7c6020860182611ac0565b506040830151611a8f6040860182611776565b506060830151611aa26060860182611809565b506080830151611ab56080860182611ac0565b508091505092915050565b611ac981611f77565b82525050565b611ad881611f77565b82525050565b6000602082019050611af36000830184611785565b92915050565b6000604082019050611b0e6000830185611785565b611b1b6020830184611acf565b9392505050565b60006020820190508181036000830152611b3c8184611794565b905092915050565b6000602082019050611b596000830184611818565b92915050565b600060a0820190508181036000830152611b798188611860565b9050611b886020830187611acf565b611b956040830186611785565b611ba26060830185611818565b611baf6080830184611acf565b9695505050505050565b60006020820190508181036000830152611bd281611899565b9050919050565b60006020820190508181036000830152611bf2816118bc565b9050919050565b60006020820190508181036000830152611c12816118df565b9050919050565b60006020820190508181036000830152611c3281611902565b9050919050565b60006020820190508181036000830152611c5281611925565b9050919050565b60006020820190508181036000830152611c7281611948565b9050919050565b60006020820190508181036000830152611c928161196b565b9050919050565b60006020820190508181036000830152611cb28161198e565b9050919050565b60006020820190508181036000830152611cd2816119b1565b9050919050565b60006020820190508181036000830152611cf38184611a4a565b905092915050565b6000602082019050611d106000830184611acf565b92915050565b6000604082019050611d2b6000830185611acf565b611d386020830184611785565b9392505050565b6000606082019050611d546000830186611acf565b611d616020830185611785565b611d6e6040830184611acf565b949350505050565b6000608082019050611d8b6000830187611acf565b611d986020830186611785565b611da56040830185611acf565b8181036060830152611db78184611860565b905095945050505050565b6000611dcc611ddd565b9050611dd8828261201f565b919050565b6000604051905090565b600067ffffffffffffffff821115611e0257611e01612126565b5b611e0b82612155565b9050602081019050919050565b6000819050602082019050919050565b600081519050919050565b600081519050919050565b6000602082019050919050565b600082825260208201905092915050565b600082825260208201905092915050565b600082825260208201905092915050565b6000611e8982611f77565b9150611e9483611f77565b9250827fffffffffffffffffffffffffffffffffffffffffffffffffffffffffffffffff03821115611ec957611ec8612099565b5b828201905092915050565b6000611edf82611f77565b9150611eea83611f77565b925082611efa57611ef96120c8565b5b828204905092915050565b6000611f1082611f77565b9150611f1b83611f77565b925082821015611f2e57611f2d612099565b5b828203905092915050565b6000611f4482611f57565b9050919050565b60008115159050919050565b600073ffffffffffffffffffffffffffffffffffffffff82169050919050565b6000819050919050565b82818337600083830152505050565b60005b83811015611fae578082015181840152602081019050611f93565b83811115611fbd576000848401525b50505050565b6000611fce82611f77565b91506000821415611fe257611fe1612099565b5b600182039050919050565b6000600282049050600182168061200557607f821691505b60208210811415612019576120186120f7565b5b50919050565b61202882612155565b810181811067ffffffffffffffff8211171561204757612046612126565b5b80604052505050565b600061205b82611f77565b91507fffffffffffffffffffffffffffffffffffffffffffffffffffffffffffffffff82141561208e5761208d612099565b5b600182019050919050565b7f4e487b7100000000000000000000000000000000000000000000000000000000600052601160045260246000fd5b7f4e487b7100000000000000000000000000000000000000000000000000000000600052601260045260246000fd5b7f4e487b7100000000000000000000000000000000000000000000000000000000600052602260045260246000fd5b7f4e487b7100000000000000000000000000000000000000000000000000000000600052604160045260246000fd5b6000601f19601f8301169050919050565b7f43616d706169676e3a20596f7520617265206e6f742074686520636f6e74726960008201527f6275746f72000000000000000000000000000000000000000000000000000000602082015250565b7f43616d706169676e3a20596f7520616c726561647920617070726f766520746860008201527f6973207265717565737400000000000000000000000000000000000000000000602082015250565b7f43616d706169676e3a20596f7520617265206e6f7420746865206d616e61676560008201527f7200000000000000000000000000000000000000000000000000000000000000602082015250565b7f43616d706169676e3a20546865207265717565737420616c726561647920657860008201527f6563757465640000000000000000000000000000000000000000000000000000602082015250565b7f43616d706169676e3a205468652072657175657374206e6f742065786973746560008201527f6400000000000000000000000000000000000000000000000000000000000000602082015250565b7f43616d706169676e3a204e6f7420656e6f75676820617072726f76616c730000600082015250565b7f43616d706169676e3a20596f757220636f6e747269627574696f6e2073686f7560008201527f6c64206265206d6f726500000000000000000000000000000000000000000000602082015250565b7f43616d706169676e3a204e6f7420656e6f75676820636f6e747269627574696f60008201527f6e73000000000000000000000000000000000000000000000000000000000000602082015250565b7f43616d706169676e3a20596f7520686173206e6f7420617072726f766564207460008201527f6869732072657175657374000000000000000000000000000000000000000000602082015250565b61241081611f39565b811461241b57600080fd5b50565b61242781611f77565b811461243257600080fd5b5056fea2646970667358221220fab5058e2fa7d6e1893accd15f35408b1275ee909d3952498b1a09f506e1bb1264736f6c63430008040033",
  "linkReferences": {},
  "deployedLinkReferences": {}
}